:020000040800F2
:1000000000000120056800084D680008EF36000870
:100010004D680008F7360008FF36000800000000B1
:10002000000000000000000000000000613800082F
:100030004D680008000000000139000869560008FA
:100040004D6800084D6800084D6800084D680008BC
:100050004D6800084D680008FD5700080758000863
:10006000115800081B580008255800084D68000862
:100070004D6800084D6800084D6800084D6800088C
:100080004D6800084D6800084D6800084D6800087C
:100090004D6800084D6800084D6800082F5800089A
:1000A0004D680008495200084D6800085D5200087C
:1000B0007152000885520008995200084D680008E6
:1000C0004D6800084D6800084D6800084D6800083C
:1000D0004D680008516700086967000881670008DB
:1000E000455800084D6800084D6800084D68000834
:1000F000E95200084D680008FD5200084D680008EC
:100100004D6800084D680008AD5200084D680008B1
:1001100099670008B1670008C1520008D55200086D
:100120004D6800084D6800084D6800084D680008DB
:1001300000000000000000000000000000000000BF
:1001400000000000000000000000000000000000AF
:10015000000000000000000000000000000000009F
:10016000000000000000000000000000000000008F
:10017000000000000000000000000000000000007F
:10018000000000000000000000000000000000006F
:10019000000000000000000000000000000000005F
:1001A000000000000000000000000000000000004F
:1001B000000000000000000000000000000000003F
:1001C000000000000000000000000000000000002F
:1001D000000000000000000000000000000000001F
:0401E0005FF8E0F1F3
:1001F00010B5054C237833B9044B13B10448AFF361
:1002000000800123237010BDA40000200000000026
:10021000C472000808B5034B1BB103490348AFF390
:10022000008008BD00000000A8000020C472000883
:1002300030B587B000230293039304930593184BC2
:100240001B680BB107B030BD154B01221A60154B6E
:100250005A6942F480725A615B6903F480730193B6
:10026000019B4FF6847302930225039503240594A2
:1002700002A90D4803F0FEFD4CF23373029303957F
:10028000059402A9094803F0F5FD4FF48053029349
:100290000395059402A9064803F0ECFDD2E700BFE0
:1002A00068010020001002400018014000140140C5
:1002B00000200140012800D070474FF6FF7399429B
:1002C000FAD100B583B0702300931D231E221F2195
:1002D000024800F0DDFF03B05DF804FBC000002021
:1002E00000B589B000220192029203920492059215
:1002F0000692079216484FF02043036003F582737D
:10030000436006238360C2600261102343618261FF
:10031000C261026242624FF480518162C262026332
:1003200042638263012101910F21029103910593A0
:100330001123069301A904F0EBFA00B1FEE7054A88
:10034000D36943F48063D36109B05DF804FB00BF57
:100350006C0100200000014008B5FFF769FF08BDEF
:1003600010B588B0504B9A6942F040029A619A6980
:1003700002F040020192019A9A6942F010029A61D9
:100380009A6902F010020292029A9A6942F080027F
:100390009A619A6902F080020392039A9A6942F084
:1003A00004029A619A6902F004020492049A9A691A
:1003B00042F008029A619A6902F008020592059AD1
:1003C0009A6942F480729A619A6902F48072069284
:1003D000069A9A6942F020029A619B6903F0200311
:1003E0000793079B0121662006F032FA01216B205A
:1003F00006F02EFA0021662006F0A4FA00216B20F8
:1004000006F0A0FAFFF76CFF00F0DCFA032000F022
:1004100079FA0121262006F01BFA0021262006F099
:1004200091FA0121192006F013FA0021192006F093
:1004300089FA0121602006F00BFA0021602006F005
:1004400081FA242005F024F80446184B68226F2115
:1004500001F030FC164B1C601649204601F072FE7C
:10046000044602E0012006F0B1FA002CFAD0104C4C
:100470000021206801F0A9FD01220021206801F07F
:100480008DFD2521206801F028FC0221206801F063
:10049000C4FD094A0021206801F0CAFC206801F06F
:1004A00017FD08B010BD00BF0010024080969800F4
:1004B00064010020C00000202473000830B583B020
:1004C000FFF74EFF0C4C01940125009500234FF4DB
:1004D00080620A490A4802F06BFB043401940095DB
:1004E00000234FF480620749074802F061FB02F0E5
:1004F00093FB03B030BD00BFB40100200C730008B3
:100500001D0B000818730008910B000808B5642043
:1005100006F05CFA08BD08B54FF6FF710120FFF741
:10052000C9FE08BD82B0019002E0019B013B01932E
:10053000019B002BF9D102B07047000008B528B12B
:1005400000224021044803F0B5FD08BD01224021EE
:10055000014803F0AFFDF8E7002001404FF0D84319
:1005600004221A804FF0DA431A881A88188880B259
:10057000000280B21B889BB2184348F25253984243
:1005800013D04FF0D843D3221A804FF0DA431A88A1
:100590001A88188880B2000280B21B889BB2184368
:1005A00049F24133984200D0002070472DE9F047CE
:1005B000FFF7D4FF704B188049F24133984206D0C0
:1005C00048F25253984200F0DB80BDE8F0874FF0CC
:1005D000D844CF2323804FF0DA4300221A808121B0
:1005E000198030251D80ED2020806420188003268E
:1005F0001E80122018801980E82121808521198011
:100600004FF01008A3F8008078211980CB212180B9
:1006100039271F802C2119801A803421198002214A
:100620001980F721218020211980EA2121801A8058
:100630001A80B12121801A804FF01B09A3F8009085
:10064000B62121800A211980A2211980C020208092
:1006500035201880C1202080112018804FF0C50C53
:10066000A4F800C04FF0450CA3F800C0A3F800C0E8
:100670004FF0C70CA4F800C01980F22121801A8025
:100680004FF0260EA4F800E04FF0010CA3F800C0D4
:10069000E02121800F211980A3F800E04FF0240E03
:1006A000A3F800E04FF00B0EA3F800E04FF00E0EA1
:1006B000A3F800E04FF0090EA3F800E04FF0540A51
:1006C000A3F800A04FF0A80AA3F800A04FF0460A34
:1006D000A3F800A04FF00C0AA3F800A04FF0170AEF
:1006E000A3F800A0A3F800E019804FF0070EA3F8CC
:1006F00000E01A804FF0E10AA4F800A01A804FF041
:10070000190AA3F800A0A3F800904FF00409A3F879
:100710000090A3F80080A3F800E04FF02A0EA3F8A1
:1007200000E04FF04708A3F800801F801E800626D7
:100730001E801E801D8038251D8019803621218055
:10074000C8211980A4F800E01A801A801A80EF21CD
:1007500019802B2121801A801A80A3F800C03F2223
:100760001A803A22228055221A8020800348FFF7FF
:10077000D9FE2923238028E7BC010020FCBF02000A
:100780004FF0D844CF2323804FF0DA4300221A8061
:10079000C1261E804FF0300EA3F800E0ED2121802D
:1007A0006421198003211980122119808120188069
:1007B000E82020808520188010201880782018805C
:1007C000CB202080392018802C251D801A803420D1
:1007D000188002201880F727278020271F80EA270B
:1007E00027801A801A80C027278021271F80268013
:1007F00011271F80C52626804FF02D0CA3F800C0BE
:1008000033261E80362626801A803A2626805526D4
:100810001E80B12626801A804FF01709A3F8009099
:10082000B62626800A261E80A2261E80F626268050
:1008300001261E80A3F800E04FF0F20EA4F800E0BD
:100840001A804FF0260EA4F800E01E80E0262680D5
:100850004FF0D008A3F800801A8018804FF0070EE0
:10086000A3F800E00B261E801A261E8031261E806B
:1008700054261E8040261E8029261E80198019803D
:100880001980A3F80090E1212180A3F800801A804C
:100890001880A3F800E005221A8025221A80A3F808
:1008A00000C044221A8045221A801C221A80182176
:1008B0001980162119801A801D221A80278003486A
:1008C000FFF730FE268025807FE600BFFCBF0200D8
:1008D00010B50B4C00224FF40061204603F0EAFBF8
:1008E00040F6FF20FFF71EFE01224FF40061204674
:1008F00003F0E0FB40F6FF20FFF714FE10BD00BF41
:1009000000200140072853D810B42A4B187010F06B
:10091000010F39D1284BF0221A80284B4FF4A072D6
:100920001A804FF0D84336221A80254B1B8849F293
:100930004132934230D048F25252934233D04FF07A
:10094000D8412A230B804FF0DA430020188018800A
:10095000194C2288013AC2F307221A802288013AF0
:10096000D2B21A802B220A8018801880134802887D
:10097000013AC2F307221A800288013AD2B21A80E1
:100980002C230B8010BC70470B4B4FF4A0721A80C5
:100990000A4BF0221A80C4E7400140F008004FF0F3
:1009A000DA431880CBE740014FF0DA431880C6E7FE
:1009B000704700BF0000002002000020040000205B
:1009C000BC01002008B50120FFF7B8FDFFF780FF4C
:1009D000FFF7ECFD024B1878FFF794FF08BD00BF4E
:1009E0000000002010B54FF0D84E2A24AEF8004089
:1009F000040A4FF0DA4CACF80040C4B2ACF8004046
:100A00001044421EC2F30F22ACF8002080B201381D
:100A1000C0B2ACF800002B22AEF800200A0AACF8F5
:100A20000020CAB2ACF8002019444B1EC3F30F23B8
:100A3000ACF8003089B20139C9B2ACF8001010BD71
:100A400038B514461D46FFF7CDFF05FB04F1074BF3
:100A500018884FF0D8432C221A80002303E04FF06F
:100A6000DA42108001339942F9D838BD06000020DF
:100A7000014B1880704700BF0600002000B597B0FA
:100A8000282200210CA806F07FFA00230793089380
:100A900009930A930B930193029303930493059391
:100AA000069301220C924FF480330D931092022290
:100AB000139214934FF4E01315930CA803F024FB46
:100AC00000B1FEE70F230793022108910023099349
:100AD0004FF480620A920B9307A803F055FD00B112
:100AE000FEE7102301930023069301A803F028FEDC
:100AF00000B1FEE717B05DF804FB000008B5FFF792
:100B0000B7FF044B1B88044A128800210846FFF7F0
:100B100097FF08BD040000200200002008B54FF434
:100B20007840FFF7EBFF4FF4FA7002F0E5F94FF46D
:100B3000FC60FFF7E3FF4FF4FA7002F0DDF91F20CD
:100B4000FFF7DCFF4FF4FA7002F0D6F94FF6E070D1
:100B5000FFF7D4FF4FF4FA7002F0CEF940F2FF70C5
:100B6000FFF7CCFF4FF4FA7002F0C6F94FF61F0002
:100B7000FFF7C4FF4FF4FA7002F0BEF94FF6FF70B2
:100B8000FFF7BCFF4FF4FA7002F0B6F9C7E70000B8
:100B900008B508E020220749074B186801F025F93D
:100BA000052002F0A9F9044B186801F019F9002892
:100BB000F0D1F5E7C0010020640100202DE9F042EA
:100BC00082B09946089B002B54D007460E46154626
:100BD000002A4FD0B9F1000F4CD0702918D96F29D5
:100BE00007D8374B53F82130B3F1FF3F47D00024EB
:100BF0000FE001F0C003C02B18D1D4293DD801F07B
:100C00003F03304A52F823202D4B53F82230EBE7B4
:100C10000024032C0BD804EB440307EB8303B3F944
:100C200070309E4203D00134E4B2F2E70424032C76
:100C300020D8B7F9A0309E4223D1702E03D0FB6E8E
:100C4000B3F1FF3F2DD004EB440407EB840494F888
:100C50007A3001934FF47A730093089B9BB24A4613
:100C60002946381D00F018FE702E03D09DF8243060
:100C7000012B1BD002B0BDE8F0820424D7E7042486
:100C8000D5E704EB440207EB8202114692F8783074
:100C900092F87920496F381D00F036FCA7F8A06063
:100CA000CBE70021304605F04DFECCE7FB6EB3F1FB
:100CB000FF3FDFD10121304605F044FEDAE700BFF7
:100CC0007479000820790008F0B587B006460D4613
:100CD0001F468DF80F2000238DF81730702918D982
:100CE0006F2907D8384B53F82130B3F1FF3F47D075
:100CF00000240FE001F0C003C02B18D1D4293DD847
:100D000001F03F03314A52F823202F4B53F8223091
:100D1000EBE70024032C0BD804EB440206EB820221
:100D2000B2F970309D4203D00134E4B2F2E70424FA
:100D3000032C27D8B6F9A0309D4226D1702D03D0C0
:100D4000F36EB3F1FF3F30D004EB440406EB8404B0
:100D500094F87A3001934FF47A73009301230DF1E4
:100D600017020DF10F01301D00F096FD702D01D01E
:100D7000012F1FD09DF8170007B0F0BD0424D7E75E
:100D80000424D5E79DF81700F6E704EB440206EBD0
:100D90008202114692F8783092F87920496F301D1E
:100DA00000F0B2FBA6F8A050C8E70021284605F0E5
:100DB000C9FDC9E7F36EB3F1FF3FDBD1012128463E
:100DC00005F0C0FDD6E700BF74790008207900085F
:100DD00070B505460E46702918D96F2907D8324BD1
:100DE00053F82130B3F1FF3F52D000240FE001F05F
:100DF000C003C02B48D1D42948D801F03F032B4A67
:100E000052F82320284B53F82230EBE70024032C20
:100E10000AD804EB440305EB8303B3F970309E4218
:100E200017D00134E4B2F2E70024032C11D804EB0C
:100E3000440305EB8303B3F97030B3F1FF3F02D0F5
:100E40000134E4B2F1E704EB440205EB8202A2F8BC
:100E50007060032C17D8702E03D0EB6EB3F1FF3FF8
:100E600018D0002385F8553004EB440205EB8202CC
:100E7000144692F8783092F87920616F281D00F0BE
:100E800043FBA5F8A06070BD0424E2E70424E0E77A
:100E90000424DEE70121304605F0DAFC012130466A
:100EA00005F050FDDDE700BF7479000820790008E7
:100EB0002DE9F04186B005460E461F46ADF80E20DE
:100EC0000023ADF81630702918D96F2907D8474B81
:100ED00053F82130B3F1FF3F65D000240FE001F05B
:100EE000C003C02B18D1D4295BD801F03F03404A7E
:100EF00052F823203D4B53F82230EBE70024032C1B
:100F00000BD804EB440205EB8202B2F970309E422A
:100F100003D00134E4B2F2E70424032C45D8B5F938
:100F2000A0309E4244D1A04604EB440405EB840467
:100F300094F8783033B1BDF80E20130243EA12233F
:100F4000ADF80E30702E03D0EB6EB3F1FF3F3FD003
:100F500008EB480305EB830393F87A3001934FF4D1
:100F60007A73009302230DF116020DF10E01281D74
:100F700000F092FC702E01D0012F2ED008EB480813
:100F800005EB880595F8783033B1BDF816201302CB
:100F900043EA1223ADF81630BDF8160006B0BDE8DE
:100FA000F0810424B9E70424B7E7BDF81600F5E79B
:100FB00004EB440205EB8202114692F8783092F875
:100FC0007920496F281D00F09FFAA5F8A060AAE7D4
:100FD0000021304605F0B6FCBAE7EB6EB3F1FF3FF7
:100FE000CCD10121304605F0ADFCC7E7747900088B
:100FF0002079000882B070B504460D4604A981E846
:101000000C00702D18D96F2D07D83B4B53F82530A5
:10101000B3F1FF3F65D000230FE005F0C003C02B04
:101020005BD1D42D5BD805F03F03344A52F823201E
:10103000314B53F82230EBE70023032B0AD803EBA4
:10104000430204EB8202B2F97020954217D00133BB
:10105000DBB2F2E70023032B11D803EB430204EBCE
:101060008202B2F97020B2F1FF3F02D00133DBB24D
:10107000F1E703EB430104EB8101A1F87050032B6E
:1010800027D81E4603EB430304EB8303059A5A67F4
:101090009DF8192083F879209DF8182083F878208E
:1010A0009DF81A2083F87A20702D03D0E36EB3F1F7
:1010B000FF3F18D006EB460204EB8202164692F878
:1010C000783092F87920716F201D00F01DFAA4F895
:1010D000A050BDE8704002B070470423CFE704235E
:1010E000CDE70423CBE70121284605F0B1FB012120
:1010F000284605F027FCDDE7747900082079000810
:10110000002B7BD02DE9F04182B006460D461746F4
:101110009846002A4BD0702918D96F2907D8384B28
:1011200053F82130B3F1FF3F48D0002412E001F022
:10113000C003C02B3ED1D4293ED801F03F03314A31
:1011400052F823202E4B53F82230EBE7002401E025
:101150000134E4B2032C07D804EB440306EB830309
:10116000B3F970309D42F3D1032C20D8B6F9A030EA
:101170009D4225D1702D03D0F36EB3F1FF3F2FD0E8
:1011800004EB440406EB840494F87A3001934FF4A2
:101190007A7300931FFA88F33A463946301D00F0FF
:1011A0007BFB702D03D09DF82030012B1DD002B0A9
:1011B000BDE8F0810424D7E70424D5E70424D3E76D
:1011C00004EB440206EB8202114692F8783092F862
:1011D0007920496F301D00F097F9A6F8A050C9E7B3
:1011E0000021284605F0AEFBCAE7F36EB3F1FF3FDE
:1011F000DDD10121284605F0A5FBD8E7704700BFE7
:10120000747900082079000810B586468446144B8E
:101210004CF8703B134C0FCCACE80F000FCCACE893
:101220000F0094E80F008CE80F004FF6FF73AEF844
:10123000A0300D4A91690D4B53F82110CEF8601083
:10124000D16953F82110CEF86410526953F8223056
:10125000CEF868304FF0FF33CEF86C30704610BDDA
:1012600034730008DC7200082079000874790008E3
:10127000012800D0704708B54FF6FF73994200D09F
:1012800008BD0248FFF7C0FFFAE700BFE0010020F9
:101290002DE9F04186460E4617461D46DDF81880BA
:1012A0008446514B4CF8703B504C0FCCACE80F00CF
:1012B0000FCCACE80F0094E80F008CE80F004FF65D
:1012C000FF73AEF8A030FBB26F2B2DD8484A52F80E
:1012D000233007F4E0671F43CEF86070F3B26F2B42
:1012E0003AD8434A52F8233006F4E0661E43CEF85B
:1012F0006460EBB26F2B47D83D4A52F8232005F4C7
:10130000E0651543CEF868505FFA88F36F2B53D829
:10131000374A52F8233008F4E06843EA0803CEF86D
:101320006C307046BDE8F08107F0C002C02A02D0E0
:101330004FF0FF37D0E7D42B0BD807F03F022D4BEF
:1013400053F822202A4B53F8223007F4E0671F435A
:10135000C2E74FF0FF37BFE706F0C002C02A02D055
:101360004FF0FF36C3E7D42B0BD806F03F02214BDA
:1013700053F822201E4B53F8223006F4E0661E4339
:10138000B5E74FF0FF36B2E705F0C002C02A02D041
:101390004FF0FF35B6E7D42B0BD805F03F02154BC5
:1013A00053F82220124B53F8223005F4E0651D4318
:1013B000A8E74FF0FF35A5E708F0C002C02A02D029
:1013C0004FF0FF33ABE7D42B0BD808F03F02094BAB
:1013D00053F82220064B53F8222008F4E06313430D
:1013E0009DE74FF0FF339AE734730008DC72000882
:1013F0007479000820790008702918D96F2907D856
:10140000294B53F82130B3F1FF3F48D0002318E0B7
:1014100001F0C003C02B42D1D42940D801F03F03D2
:10142000224A52F82320204B53F82230EBE70023C6
:1014300007E04FF6FF73A0F8A03010BC70470133EF
:10144000DBB2032B2BD803EB430200EB8202B2F991
:1014500070208A42F3D110B403EB430200EB820206
:101460004FF6FF74A2F87040114C54674FF0010C16
:1014700082F878C003EB430200EB82024FF0000CCD
:1014800082F879C00133DBB2032BD2D803EB4302DD
:1014900000EB8202B2F970208A42F3D1DCE74FF60A
:1014A000FF73A0F8A0307047747900082079000815
:1014B00000093D0008B54FF6FF710120FFF7D8FE87
:1014C00008BD000003460C4A1068A3B110B51C46C5
:1014D0000A4B9C4206D00A4B9C4206D0094B9C42C8
:1014E00006D010BD03F01CF9F5E703F009F9F5E7A4
:1014F00003F006F9F5E770473C000020003001409A
:1015000000380040003C0040002800F0C4812DE974
:10151000F04F85B00E4615461F460446A549006E9D
:1015200004F066FE8046A449E06D04F061FE814649
:10153000A249606E04F05CFE8246A149A06E04F0F0
:1015400057FE8346B8F1000F00F00881B9F1000F93
:1015500000F00481BAF1000F00F0008149464046D6
:1015600004F076FE80465946504604F071FE8146EE
:101570000146404604F06CFEA065B8F1000F00F093
:10158000ED80B9F1000F00F0E980002800F0E6805E
:10159000A36EB3F1FF3F15D04FF48023A361206009
:1015A0004FF482736360FFF78DFFB6EB500F0DD3DE
:1015B0000023E3610023A3607DB3022D2DD001231E
:1015C00063612CE04FF40073A361E8E7B6EB900F82
:1015D00002D30823E361EDE7B6EBD00F02D310236B
:1015E000E361E7E7B6EB101F02D31823E361E1E7FD
:1015F000B6EB501F02D32023E361DBE7B6EB901F6D
:1016000002D32823E361D5E7B6EBD01F02D3302302
:10161000E361CFE73823E361CCE700236361012D69
:1016200063D9022323610023A3620722E262E360FD
:10163000002F5DD180232362002363625D49206E09
:1016400004F0B8FD5C49E06D04F0B4FD5B49606EE8
:1016500004F0B0FD2369002B4DD10225636EC3F366
:101660000312062A49D8574951F8220003F00F0304
:10167000554A52F82320130EC15892FAA2F3002BB8
:101680003DD0B3FA83F39B000F2606FA03F319400B
:1016900092FAA2F3ABB3B3FA83F39B0021FA03F3FC
:1016A000012D30D0022D7DD0082B3DD1130E00EB43
:1016B0001265C15892FAA2F3002B00F0AC80B3FA85
:1016C00083F39B000F2000FA03F321EA030192FA4F
:1016D000A2F2002A00F0A180B2FA82F29300042262
:1016E00002FA03F30B432B601EE0002323619AE709
:1016F00000232362A0E70125B0E70020B6E72023FE
:10170000C1E72023C9E7042B2BD0C168130A21EAC3
:10171000122293FAA3F3002B42D0B3FA83F30121F0
:1017200001FA03F31343C3602549A06E04F042FDA0
:101730002268264B9A4272D02268254B9A4200F0CA
:1017400082802268234B9A4200F09180204603F069
:1017500084F82268136843F04003136005B0BDE8C5
:10176000F08F130E00EB1265C15892FAA2F39BB1F1
:10177000B3FA83F39B000F2606FA03F321EA030171
:1017800092FAA2F353B1B3FA83F39B00082606FA48
:1017900003F30B432B60B8E72023EBE72023F4E7A8
:1017A0002023BCE7042B17D0C36823EA1222C260AF
:1017B000BAE700BF40740008047400087C74000895
:1017C000B874000818000020887300080030014039
:1017D00000380040003C0040130E00EB1265C15879
:1017E00092FAA2F39BB1B3FA83F39B000F2606FA99
:1017F00003F321EA030192FAA2F353B1B3FA83F39C
:101800009B00082606FA03F30B432B60CCE720234A
:10181000EBE72023F4E7202353E720225EE703F5DC
:1018200060439A6942F480529A619A6902F4805244
:101830000192019ADA6842F48052DA60DA6822F49E
:101840008052DA6078E703F5EC33DA6942F48042DB
:10185000DA61DA6902F480420292029A1A6942F469
:1018600080421A611A6922F480421A6169E703F51D
:10187000EA33DA6942F40042DA61DA6902F40042DA
:101880000392039A1A6942F400421A611A6922F417
:1018900000421A615AE770472DE9F84F0A9F9DF8F8
:1018A0002C90056820B10C4693461E4603B12FB913
:1018B00017B10220BDE8F88F0120FBE702F040F9E4
:1018C00082460AE0AB6813F0010FFBD05E462B7B2B
:1018D00006F8013BB3460DE0464606F1FF38A6B1D7
:1018E000AB6813F0020FFBD014F8013B2B73B9F176
:1018F000000FE7D0B7F1FF3FEED002F021F9A0EBE7
:101900000A00B842E8D3012000E00020AB6813F0E1
:10191000800FFBD1CEE7000010B50446C08805F06B
:1019200011F8226A074B5968074B1B680748A0FB50
:1019300003039B0C03FB02F2024B5B685B1A9A42A7
:10194000FADC10BD001000E03C00002083DE1B43E9
:1019500008B503468088DB88984200D108BD04F0B2
:10196000F1FFFBE72DE9F04188B004460E46D0F8C0
:1019700000C083684FF6FF72ADF81420069301256E
:101980008DF81C5000278DF81D708DF81E7002AB6D
:1019900008AA12E9070083E80700DCF80020D2F863
:1019A0000480049A00920CCB70216046C0473946EF
:1019B0002046FFF7B1FF206803689F682B46324638
:1019C0007021B8472073206803689E682B46FF2269
:1019D0007021B047064629462046FFF79DFF70213B
:1019E0002068FFF709FD304608B0BDE8F0812DE919
:1019F000F04788B007460C4615461E46D0F800C092
:101A000083684FF6FF72ADF8142006934FF001097A
:101A10008DF81C904FF000088DF81D808DF81E8009
:101A200002AB08AA12E9070083E80700DCF80020EF
:101A3000D2F804A0049A00920CCB70216046D047E3
:101A400041463846FFF768FF38680368D3F80880D6
:101A50004B4644F020027021C047387308E03868D4
:101A600003689E68012315F8012B7021B0472646B4
:101A7000711ECCB2002EF2D101213846FFF74CFF87
:101A800070213868FFF7B8FC08B0BDE8F0872DE991
:101A9000F0438DB004460D46002B36D0D0F800C080
:101AA00083684FF6FF72ADF81820079301268DF872
:101AB000206000278DF821708DF8227003AB06AAF4
:101AC00007CA83E80700DCF80020D2F80480059AF2
:101AD00000920CCB70216046C04739462046FFF784
:101AE0001BFF206803689F68334645F02002702181
:101AF000B847207331462046FFF70EFF702120685B
:101B0000FFF77AFC0DB0BDE8F0839046D0F800C036
:101B100083684FF6FF72ADF824200A9301268DF8F2
:101B20002C6000278DF82D708DF82E7003AB0CAA59
:101B300012E9070083E80700DCF80020D2F80490DF
:101B4000059A00920CCB70216046C8473946204662
:101B5000FFF7E2FE206803689F68334645F02002E5
:101B60007021B8472073206803689D683346424659
:101B70007021A84731462046FFF7CEFE702120682D
:101B8000FFF73AFCBEE72DE9F04788B007460C4660
:101B90001546037E002B35D1467B964200D835464C
:101BA000761BF6B2D7F800C0BB684FF6FF72ADF8EF
:101BB000142006934FF001098DF81C904FF0000897
:101BC0008DF81D808DF81E8002AB08AA12E907006F
:101BD00083E80700DCF80020D2F804A0049A009201
:101BE0000CCB70216046D04741463846FFF794FE43
:101BF00038680368D3F808804B4661227021C047DB
:101C000038730EE0202A28BF20250026CAE738684E
:101C100003689D680123FF227021A84704F8010B87
:101C200045466B1E5FFA83F8002DF0D107E0386857
:101C300003689D680123FF227021A8472646731E72
:101C4000DCB2002EF3D101213846FFF765FE70218A
:101C50003868FFF7D1FB08B0BDE8F08710B504463F
:101C60000123FF22E221FFF712FF207B10BD10B5F8
:101C700004460123FF22E121FFF709FF207B10BD6D
:101C800010B504460123FF221146FFF700FF207B19
:101C900010BD0000054B036000238373826848F683
:101CA000B8039A4201D8024B83607047E0010020DC
:101CB0008096980010B504468180C28083602023FE
:101CC00043730023037543750523C3750122027610
:101CD0000362FFF7DFFF204610BD08B50A467C29E6
:101CE00000D97D2200230521FFF7D1FE08BD38B5BC
:101CF000054631B10B46202928BF20236B730024F1
:101D00000BE00123FAE704F1110100236A7BC9B259
:101D10002846FFF7BCFE0134E4B2052CF3D938BDE8
:101D200082884FF6FF739A4206D0C2889A4201D049
:101D300001207047002070470020704738B50446E6
:101D4000FFF7EEFF054658B1A088E388984209D115
:101D500000212046FFF7FCFD01212046FFF7DCFDB6
:101D6000284638BD012104F073FD0121E08804F00C
:101D70006FFDEDE7C27C12F0020F00D0704708B58E
:101D800042F00202C27400231946FFF780FE094B9D
:101D90005968094B1A68094BA3FB0232920C41F2B5
:101DA000883303FB02F2034B5B685B1A9A42FADC4E
:101DB00008BD00BF001000E03C00002083DE1B4394
:101DC00010B50C46FFF75CFFC0F34200052803D8AE
:101DD00024B12070012010BD0020FCE70120FAE7AB
:101DE00008B50021FFF7ECFF08BD10B50446FFF76A
:101DF000CAFE0023402207212046FFF748FE10BDFF
:101E000038B50546023911F0FF0109D001F003048D
:101E1000002322460321FFF73AFE0234EC7538BD59
:101E200000231A460321FFF732FE0223EB75F6E783
:101E300070B5044615460E46D9B1052E18D8012EA8
:101E40001FD901232A461349895D2046FFF7CFFD9C
:101E500002212046FFF786FD42B20F4B9B5D012019
:101E6000984002430023D2B202212046FFF70FFE22
:101E700070BDC27D29460E3005F078F801236375E8
:101E8000DBE7E37D2A460349895D2046FFF7AFFD86
:101E9000DEE700BF4C7300085473000838B50546F0
:101EA0000C460221FFF75EFD42B2084B1B5D01208C
:101EB000984022EA00020023D2B202212846FFF70E
:101EC000E6FD0CB900236B7538BD00BF54730008E4
:101ED00010B50446FFF74EFFE27C42F00102E274C7
:101EE000002319462046FFF7D2FD00237022072168
:101EF0002046FFF7CCFD01212046FFF729FD637D39
:101F00003BB1E37D04F10E020A212046FFF76FFD8D
:101F100010BD00212046FFF7C1FFF9E72DE9F04190
:101F200088B00446076883684FF6FF72ADF8142046
:101F3000069301258DF81C5000268DF81D608DF844
:101F40001E6002AB08AA12E9070083E807003A689E
:101F5000D2F80480049A00920CCB70213846C04716
:101F600031462046FFF7D8FC206803689E682B4660
:101F700050227021B0472073206803689E682B466A
:101F800073227021B04729462046FFF7C5FC702117
:101F90002068FFF731FA08B0BDE8F08170B505465A
:101FA0000C4616460621FFF7DDFC00F0F800032C76
:101FB00028BF03246400E4B2A219D2B20023024372
:101FC00006212846FFF763FD70BD70B505460E4635
:101FD0000621FFF7C7FC00F0D7045523EB61022E62
:101FE00011D0012E13D000200443002322460621E5
:101FF0002846FFF74CFD06212846FFF7B3FCA04218
:1020000009D0002070BD9B23EB612020ECE7412329
:10201000EB610820E8E70120F4E708B5C37C03F092
:10202000F303C37439B101290BD043F00803C3741F
:1020300043F00403C3740023C27C1946FFF727FD55
:1020400008BD43F00803C374F5E708B50F2928BF9E
:102050000F210F2A28BF0F2252B242EA0112002399
:10206000D2B20421FFF713FD08BD38B504460520A0
:1020700004F0ACFC0F2205212046FFF7E6FF00210B
:102080002046FFF7A2FF1D212046FFF76BFC054607
:102090002046FFF743FF1D212046FFF763FC8542E2
:1020A00014BF00250125257538B1002D46D1002328
:1020B0001A461D212046FFF7EAFC0025A5752B4690
:1020C0002A461C212046FFF7E2FC25762B463F22BC
:1020D00001212046FFF7DBFC2B460322022120468C
:1020E000FFF7D5FC20212046FFF701FE0521204601
:1020F000FFF786FE4C212046FFF7EFFD2B467022AE
:1021000007212046FFF7C3FC2046FFF7A7FD204626
:10211000FFF7ADFD2B460C2229462046FFF7B7FC02
:1021200029462046FFF71EFCE0742046FFF722FEFA
:10213000E07C0E2814BF0020012038BD2046FFF7A8
:10214000EDFEB4E710B504460160FFF7F7FD00B9F6
:1021500010BD2046FFF789FFFAE700F1080343604E
:102160004FF0FF328260C360036100230360704759
:1021700000230361704743684B609A688A6051602E
:1021800099600861036801330360704730B40D68DB
:10219000B5F1FF3F11D000F108031C465B681A68D7
:1021A000AA42FAD963684B6099608C6061600861EB
:1021B00003680133036030BC70470469F2E70369C8
:1021C000416882688A60416851605A68824206D0DC
:1021D000002202611A68013A1A6018687047826822
:1021E0005A60F5E710B5044601F04CFBA26BE36BB7
:1021F0009A4204D0002401F067FB204610BD012460
:10220000F9E710B5044601F03DFBA36B23B90124A7
:1022100001F05AFB204610BD0024F9E770B50446D2
:102220001546866B026C5AB903681BB10020013653
:10223000A66370BD806800F0B5FF0023A360F6E7D9
:102240006DB9406804F092FE226C636813446360C9
:10225000A268934219D3236863602846E7E7C06801
:1022600004F084FE226C5142E3689B1AE36022680A
:10227000934202D2A3680B44E360022D01D00020F8
:10228000D5E726B1013E0020D1E72846CFE7002060
:10229000CDE708B50346026C62B10846D96811441F
:1022A000D960D3F808C0614501D31968D960D968ED
:1022B00004F05CFE08BD38B5054601F0E3FA95F878
:1022C000454064B201E0013C64B2002C0ADD6B6A57
:1022D00043B105F1240000F0BBFE0028F3D000F06C
:1022E0004BFFF0E7FF2385F8453001F0EDFA01F0F0
:1022F000C9FA95F8444064B201E0013C64B2002C94
:102300000ADD2B6943B105F1100000F0A1FE0028A1
:10231000F3D000F031FFF0E7FF2385F8443001F0FF
:10232000D3FA38BD38B5E0B10D46044601F0AAFA3B
:102330002368E26B216C01FB0230A0600020A063E7
:102340006360013A02FB0133E360FF2384F8443009
:1023500084F84530FDB9236963B901F0B5FA01206D
:1023600038BD4FF0500383F31188BFF36F8FBFF375
:102370004F8FFEE704F1100000F06AFE0028ECD059
:102380004FF0E0234FF08052C3F8042DBFF34F8F7E
:10239000BFF36F8FE1E704F11000FFF7DEFE04F1F9
:1023A0002400FFF7DAFED8E738B51D46049C0B463B
:1023B00049B92460E063236401212046FFF7B2FF9E
:1023C00084F84C5038BD2260F4E740B94FF0500318
:1023D00083F31188BFF36F8FBFF34F8FFEE7F0B524
:1023E00083B00C461546064601FB00F0503001F064
:1023F000E9F9074638B100902B4600F1500221461A
:102400003046FFF7D1FF384603B0F0BDF0B585B0D8
:10241000019288B10F461D460446B1B1022D20D16C
:10242000E36B012B1DD04FF0500383F31188BFF3F2
:102430006F8FBFF34F8FFEE74FF0500383F3118888
:10244000BFF36F8FBFF34F8FFEE7036C002BE5D018
:102450004FF0500383F31188BFF36F8FBFF34F8F9B
:10246000FEE700F08FFE064658B9019B002B48D0CE
:102470004FF0500383F31188BFF36F8FBFF34F8F7B
:10248000FEE700263DE02A4639462046FFF7C6FE15
:10249000636A7BB948B14FF0E0234FF08052C3F834
:1024A000042DBFF34F8FBFF36F8F01F00DFA0120A2
:1024B00005B0F0BD04F1240000F0CAFD0028F4D0FE
:1024C0004FF0E0234FF08052C3F8042DBFF34F8F3D
:1024D000BFF36F8FE9E701F0F7F90020E8E702A802
:1024E00000F0FCFD012619E0002384F8443021E0CF
:1024F000002384F8453023E02046FFF7DCFE00F09F
:102500007FFC01F0BFF9A26BE36B9A42BBD3022DB3
:10251000B9D0019B002BDED0002EE0D001F0D4F921
:1025200000F0CAFB01F0AEF994F8442052B2B2F1C7
:10253000FF3FD9D094F8452052B2B2F1FF3FD7D037
:1025400001F0C2F901A902A800F0D4FDD8B92046D3
:10255000FFF748FE0028CFD0019904F1100000F0E9
:1025600043FD2046FFF7A7FE00F04AFC0028C8D133
:102570004FF0E0234FF08052C3F8042DBFF34F8F8C
:10258000BFF36F8FBDE72046FFF795FE00F038FCE4
:1025900000208DE72DE9F84390B10F4616461C4602
:1025A0000546B1B1022C20D1EB6B012B1DD04FF0B1
:1025B000500383F31188BFF36F8FBFF34F8FFEE794
:1025C0004FF0500383F31188BFF36F8FBFF34F8F2A
:1025D000FEE7036C002BE5D04FF0500383F3118826
:1025E000BFF36F8FBFF34F8FFEE701F035FAEFF3C4
:1025F00011894FF0500383F31188BFF36F8FBFF33E
:102600004F8FAA6BEB6B9A4206D3022C04D00020AA
:1026100089F31188BDE8F88395F845804FFA88F86A
:10262000AB6B224639462846FFF7F8FDB8F1FF3F6D
:1026300006D008F101035BB285F845300120E7E7D9
:102640006B6A0BB90120E3E705F1240000F000FDFF
:1026500018B126B101203060DAE70120D8E7012067
:10266000D6E7F0B585B0019290B10F460446C1B1EE
:1026700000F088FD064600BB019B002B5ED04FF0AA
:10268000500383F31188BFF36F8FBFF34F8FFEE7C3
:102690004FF0500383F31188BFF36F8FBFF34F8F59
:1026A000FEE7036C002BE3D04FF0500383F3118857
:1026B000BFF36F8FBFF34F8FFEE700263EE0394632
:1026C0002046FFF7E6FD013DA563236923B901F02C
:1026D000FBF8012005B0F0BD04F1100000F0B8FCDB
:1026E0000028F4D04FF0E0234FF08052C3F8042DBF
:1026F000BFF34F8FBFF36F8FE9E701F0E5F80020DC
:10270000E8E702A800F0EAFC012621E0002384F8B3
:10271000443029E0002384F845302BE02046FFF7C1
:10272000CAFD00F06DFB09E02046FFF7C4FD00F094
:1027300067FB2046FFF765FD00283FD101F0A2F8B6
:10274000A56B002DBBD1019B002BD6D0002ED8D07D
:1027500001F0BAF800F0B0FA01F094F894F84430BF
:102760005BB2B3F1FF3FD1D094F845305BB2B3F127
:10277000FF3FCFD001F0A8F801A902A800F0BAFCF1
:102780000028D1D12046FFF73CFD0028C6D0019992
:1027900004F1240000F028FC2046FFF78CFD00F037
:1027A0002FFB0028CAD14FF0E0234FF08052C3F82E
:1027B000042DBFF34F8FBFF36F8FBFE7002089E772
:1027C0000023072B0CD8074A52F833200AB10133F3
:1027D000F7E7044A42F8331002EBC303586070472E
:1027E000704700BF8402002070B504460D461646AF
:1027F00001F048F894F844305BB2B3F1FF3F0DD0DC
:1028000094F845305BB2B3F1FF3F0BD001F05CF8B8
:10281000A36B5BB12046FFF74EFD70BD002384F82B
:102820004430EDE7002384F84530EFE7324629468F
:1028300004F1240000F0F0FBECE70000084B1B68FB
:102840001B6823B9074B4FF0FF321A607047044BE7
:102850001B68DB68DB685A68024B1A60704700BF70
:10286000C80200209C0300202DE9F04780460D4659
:1028700017469946089EDDF824A00A9C9200A521DF
:10288000206B04F081FB236B07F18042013A03EBDC
:10289000820727F00707002D65D04FF0000CBCF130
:1028A0000F0F0BD815F80C2004EB0C0383F8342021
:1028B00015F80C3013B10CF1010CF0E7002384F88B
:1028C0004330062E00D90626E662E664002525651B
:1028D000201DFFF74DFC04F11800FFF749FC2461AF
:1028E000C6F10706A6616462C4F8805484F8845473
:1028F0004FF48562294604F1580004F045FB04F5C5
:102900005173E36504F56B73236604F21443636645
:1029100001220023C4E9402343F20E33A4F8083116
:102920004AF6CD33A4F80A3141F23423A4F80C312D
:102930004EF26D63A4F80E314DF6EC63A4F810313D
:102940000523A4F812310B23A4F814314A4641465A
:10295000384600F06FFF2060BAF1000F01D0CAF8CE
:102960000040BDE8F087002384F83430A9E7000078
:1029700038B5002407E004EB840293000E481844A5
:10298000FFF7EBFB0134062CF5D90C4D2846FFF779
:10299000E4FB0B4C2046FFF7E0FB0A48FFF7DDFBAA
:1029A0000948FFF7DAFB0948FFF7D7FB084B1D6022
:1029B000084B1C6038BD00BFD0020020700300200F
:1029C00084030020A8030020D4030020C0030020BB
:1029D000C8020020CC02002010B5044600F052FFCF
:1029E000224A136801331360214B1B685BB1214BF2
:1029F0001B686BB91E4B1B68DA6AE36A9A4207D8F8
:102A00001B4B1C6004E01A4B1C601368012B29D07F
:102A1000194A1368013313606364E06A0123834039
:102A2000164A11680B43136000EB8000211D144B04
:102A300003EB8000FFF79FFB00F046FF0D4B1B6888
:102A40007BB10B4B1B68DA6AE36A9A4209D24FF0FA
:102A5000E0234FF08052C3F8042DBFF34F8FBFF334
:102A60006F8F10BDFFF784FFD2E700BF5C0300202B
:102A7000C4020020BC030020680300206C03002077
:102A8000D002002010B50446583004F06FFB206BD4
:102A900000F09CFE204600F099FE10BD0F4B1B6815
:102AA000D3B110B500F0EEFE0D4BDB68DC68201DE5
:102AB000FFF785FB0B4A1368013B1360074A136855
:102AC000013B136000F000FF2046FFF7DBFF034BE4
:102AD0001B68002BE6D110BD704700BF60030020CB
:102AE000D40300205C03002070B504460D461D4B46
:102AF0001E681D4B18680430FFF761FB50B91A4B74
:102B00001B68DA6A012303FA02F218490B6823EA08
:102B100002030B60B4F1FF3F0DD03444124B1B682D
:102B20005C60A64210D9124B18680F4B196804312B
:102B3000FFF72CFB70BD002DEFD00B4B1968043153
:102B40000C48FFF718FBF5E70B4B1868064B1968A4
:102B50000431FFF71BFB094B1B68A342EAD9074B63
:102B60001C60E7E7E8030020C40200206C0300209B
:102B7000CC020020C0030020C80200209C030020DB
:102B800008B50BE04FF0E0234FF08052C3F8042D5E
:102B9000BFF34F8FBFF36F8F00F0A5FDFFF77EFFF0
:102BA000024B1B68012BEDD8F6E700BFD0020020D6
:102BB0002DE9F04385B00746884614461E4690002E
:102BC00000F000FEF8B181464FF4916000F0FAFD8C
:102BD0000546A0B1C0F83090D5B10023039302950B
:102BE0000D9B01930C9B0093334622464146384689
:102BF000FFF73AFE2846FFF7EFFE012005E04846C2
:102C000000F0E4FDE8E74FF0FF3005B0BDE8F083E9
:102C10004FF0FF30F9E7000000B583B01D4B019382
:102C2000002300931C4AC2F3CF021C491C48FFF743
:102C3000BFFF012807D0012808D0B0F1FF3F1FD007
:102C400003B05DF804FB00F069FBF4E74FF05003BC
:102C500083F31188BFF36F8FBFF34F8F114B1B6846
:102C60005833114A1360114B4FF0FF321A60104B6A
:102C700001221A600F4B00221A6000F08DFEDFE780
:102C80004FF0500383F31188BFF36F8FBFF34F8F63
:102C9000FEE700BF98030020000400005C730008FA
:102CA000812B0008C4020020400000209C0300206B
:102CB000BC030020E8030020024A136801331360BC
:102CC000704700BF64030020014B1868704700BFC5
:102CD000E8030020F8B53F4B1B68002B70D13E4B3A
:102CE0001D6801351D60C5B93C4B1B681B6843B1AD
:102CF0004FF0500383F31188BFF36F8FBFF34F8FF3
:102D0000FEE7364A1168364B186810601960354A7C
:102D1000136801331360FFF791FD334B1B68AB421F
:102D200041D90027314B1B68DB6A03EB83039A0010
:102D30002F4B9B58012B00D901272E4B1B68002BD2
:102D40003BD02D4B1B68002B41D001273FE00127D2
:102D5000224B1B681B6843B3204B1B68DB68DC6895
:102D600063689D4226D3261D3046FFF728FAA36AE2
:102D70001BB104F11800FFF722FAE36A01229A401E
:102D80001E49086802430A6003EB83039A00314638
:102D900017481044FFF7EFF9E26A144B1B68DB6A2F
:102DA0009A42D4D2D4E70027D2E70F4B4FF0FF323C
:102DB0001A60B7E70C4A1360B4E700F0A4FCC0E760
:102DC0000C4A13680133136000F09DFC002738465D
:102DD000F8BD00BF64030020E8030020C802002003
:102DE000CC020020A00300209C030020C40200208D
:102DF000D0020020A4030020EC0300206C0300207C
:102E000038B5354B1B6843B94FF0500383F3118835
:102E1000BFF36F8FBFF34F8FFEE700F033FD2E4BF4
:102E20001A68013A1A601B68002B4FD12B4B1B68A4
:102E30000BB900244BE00024294B1B681BB3284B23
:102E4000DB68DC6804F11800FFF7B9F9251D284696
:102E5000FFF7B5F9E06A01238340224A11680B436A
:102E6000136000EB800029461F4B03EB8000FFF747
:102E700082F9E26A1D4B1B68DB6A9A42DCD31C4B69
:102E800001221A60D8E70CB1FFF7D8FC194B1C6877
:102E900084B9174B1C68D4B14FF0E0234FF0805237
:102EA000C3F8042DBFF34F8FBFF36F8F01240EE0E3
:102EB000013C07D0FFF70EFF0028F9D00C4B012290
:102EC0001A60F5E70B4B00221A60E2E7002400F0DD
:102ED000FBFC204638BD00BF640300205C030020DB
:102EE000A80300206C030020D0020020C4020020B0
:102EF000EC030020A403002010B5A8B10446104B39
:102F00001B6843B14FF0500383F31188BFF36F8FF9
:102F1000BFF34F8FFEE7FFF7CFFE00212046FFF7FC
:102F2000E3FDFFF76DFF48B94FF0E0234FF080520B
:102F3000C3F8042DBFF34F8FBFF36F8F10BD00BFD9
:102F400064030020224B1B681BB1224B01221A6034
:102F50007047204B00221A601F4B1B68B3FA83F3A3
:102F6000DBB2C3F11F0303EB83018A001B498A58BC
:102F700042B94FF0500383F31188BFF36F8FBFF353
:102F80004F8FFEE7154903EB830082000A44506827
:102F90004068506003EB830C4FEA8C020832114406
:102FA00088420DD003EB83039A000C4B13445B68FB
:102FB000DA680B4B1A601B6858330A4A1360704773
:102FC000406862469100054A0A445060EAE700BF43
:102FD00064030020EC0300206C030020D0020020DA
:102FE000C40200204000002058B110B50C46094A28
:102FF00011681831FFF7CAF801212046FFF774FD68
:1030000010BD4FF0500383F31188BFF36F8FBFF3F0
:103010004F8FFEE7C402002038B570B10D4614464C
:103020000A4A11681831FFF7A6F80CB14FF0FF35C6
:1030300021462846FFF758FD38BD4FF0500383F373
:103040001188BFF36F8FBFF34F8FFEE7C4020020DC
:1030500038B5C368DC6824B304F118052846FFF7C7
:10306000AEF8184B1B682BBB251D2846FFF7A7F8A9
:10307000E06A01238340144A11680B43136000EB9C
:1030800080002946114B03EB8000FFF774F8E26AD9
:103090000F4B1B68DB6A9A4211D901200D4B186057
:1030A00038BD4FF0500383F31188BFF36F8FBFF328
:1030B0004F8FFEE729460848FFF75DF8E7E7002055
:1030C000EEE700BF640300206C030020D002002064
:1030D000C4020020EC030020A8030020034B1B685F
:1030E0000360034B1B684360704700BFA0030020D0
:1030F000E8030020D8B170B50C46054601B300F0D6
:10310000C1FB1B4B19686B68C81A2268B2F1FF3FFC
:1031100027D0184E3668D5F800C0B44501D08B4290
:1031200024D9824215D80023236001241AE04FF0ED
:10313000500383F31188BFF36F8FBFF34F8FFEE708
:103140004FF0500383F31188BFF36F8FBFF34F8F9E
:10315000FEE75B1A134423602846FFF7BFFF0024F5
:1031600000E0002400F0B0FB204670BD0124F9E728
:10317000E8030020A0030020014B01221A607047E1
:10318000EC030020054B1B6833B1054B1B680BB1EA
:10319000002070470220704701207047BC030020C8
:1031A0006403002000284CD038B50446274B1B6828
:1031B000834208D04FF0500383F31188BFF36F8F21
:1031C000BFF34F8FFEE7036D43B94FF0500383F316
:1031D0001188BFF36F8FBFF34F8FFEE7013B03658D
:1031E000C16AC26C91422ED00BB1002038BD051DC2
:1031F0002846FEF7E4FF70B9E26A02EB82039B0007
:103200001349CB583BB9012303FA02F211490B6869
:1032100023EA02030B60E06CE062C0F10703A361E4
:10322000012404FA00F30B4A11680B43136000EB0E
:1032300080002946064B03EB8000FEF79CFF2046EA
:10324000D4E7002070470020D0E700BFC402002070
:10325000D00200206C030020064B1A6813682BB9BB
:103260000123036023B9D368186870470023F8E787
:1032700000207047F003002008B5416000619142D2
:103280000CD8D21A83699A4201D3012008BD011DCE
:10329000094B1868FEF77AFF0020F7E79A4201D23F
:1032A000994206D2011D054B1868FEF76FFF0020FA
:1032B000ECE70120EAE700BFF4030020F003002060
:1032C00038B500F0DFFA0F4B1B6813B100F0FCFAC1
:1032D00038BD0D4D2846FEF740FF0C4C2046FEF74A
:1032E0003CFF0B4B1D600B4B1C6000220C210A2085
:1032F000FFF76BF8034B18600028E7D00649FFF78B
:103300005FFAE3E724040020F80300200C04002007
:10331000F0030020F40300206473000800B583B0BC
:10332000FFF7CEFF0E4B1B686BB10E4AD20852005E
:1033300092B20D4B01930223009300230B490C48DA
:10334000FFF736FC40B94FF0500383F31188BFF309
:103350006F8FBFF34F8FFEE703B05DF804FB00BF34
:103360002404002000040000280400206C730008DE
:1033700065360008B8B19C4603461848006858B343
:1033800000B585B001910292039305291CDCFFF77B
:10339000F9FE022810D000231A4601A90F48006840
:1033A000FFF734F815E04FF0500383F31188BFF3B3
:1033B0006F8FBFF34F8FFEE70023069A01A90748DE
:1033C0000068FFF723F804E00023624601A9FFF735
:1033D000E1F805B05DF804FB0020704724040020EC
:1033E00070B582B01B4B1B681A6862B3DB681E683D
:1033F000DC68251D2846FEF7E2FE236A2046984732
:1034000094F8283013F0040FECD0A36933449E42A3
:1034100007D26360246129460E4B1868FEF7B6FE9A
:10342000E0E7002100910B4632462046FFF7A2FF5D
:103430000028D7D14FF0500383F31188BFF36F8F6B
:10344000BFF34F8FFEE7044A10680249086013601B
:1034500002B070BDF0030020F403002038B505462B
:10346000FFF732FC0446074B1B68834205D8002354
:103470002B60044B1C60204638BDFFF7B1FF0123D1
:103480002B60F6E72004002070B582B006460D469A
:1034900017490968C968CC68201DFEF790FE94F8AA
:1034A00028C01CF0040F08D12CF0010C84F828C0AF
:1034B000236A2046984702B070BDA16933462A4668
:1034C00031442046FFF7D8FE0028F1D000210091BA
:1034D0000B4632462046FFF74DFF0028E8D14FF05B
:1034E000500383F31188BFF36F8FBFF34F8FFEE755
:1034F000F003002070B582B006460C46FFF7DCFBF7
:1035000001A8FFF7ABFF019B33BB05460CB9B042E6
:1035100019D224B1124A12681268DAB9012422467B
:10352000711B104B1868FFF75FF9FFF769FCA8B92A
:103530004FF0E0234FF08052C3F8042DBFF34F8FBC
:10354000BFF36F8F0AE0FFF75BFC29463046FFF7B9
:103550009BFF03E01C46E2E7FFF752FC02B070BDA0
:10356000F40300202404002010B586B0002203A933
:103570003B4B1868FFF775F800286ED0039B002BB3
:10358000F4DB059C636913B1201DFEF718FE02A849
:10359000FFF764FF039B092BE8D8DFE803F005057C
:1035A000053037500505303794F8283043F00103D3
:1035B00084F82830049BA169024619442046FFF78D
:1035C0005BFE0028D2D0236A2046984794F8283022
:1035D00013F0040FCAD0A269002100910B46049891
:1035E00002442046FFF7C6FE0028BFD14FF050032B
:1035F00083F31188BFF36F8FBFF34F8FFEE794F80B
:10360000283023F0010384F82830AFE794F82830FD
:1036100043F0010384F828300499A16131B10346D5
:10362000024601442046FFF727FE9FE74FF0500374
:1036300083F31188BFF36F8FBFF34F8FFEE794F8CA
:10364000283013F0020F04D023F0010384F828304F
:103650008CE7204600F0BAF888E706B010BD00BF3E
:103660002404002000B583B001A8FFF7F5FD0199FF
:10367000FFF740FFFFF778FFF6E70000074B1B68F6
:10368000074AA2FB03231B0B03FB00F0002301E00E
:1036900000BF01338342FBD3704700BF3C000020D2
:1036A0001BECCB9538B5054672B60121702003F0AE
:1036B000CFF803E04FF4FA60FFF7E0FF0024AC42DC
:1036C000F8DA0121702003F03DF94FF49670FFF70E
:1036D000D5FF0021702003F035F94FF49670FFF705
:1036E000CDFF0134EBE708B5FCF710FF08BD08B5C6
:1036F0000420FFF7D7FF08B50520FFF7D3FF08B573
:103700000620FFF7CFFF704708B5FFF73BFD012804
:1037100000D108BD00F016F9FBE70000F8B5064639
:103720000C46184B1B6853B9174A184B18495B1ABB
:1037300022F003029B1A174A1360124A1360FFF724
:1037400021FD012815D0104B23F003030F4FFF1A62
:10375000FFF7B2FA104B1D682B19BB420BD80E4A6B
:1037600013600C4B1968091B1960FFF749FB2846C9
:10377000F8BD6F46ECE70C233360FFF741FB4FF0D9
:10378000FF35F4E72C0400200004000000000120B5
:10379000F0060020300400200800002008B5EFF3F8
:1037A000058313B9FFF788FA08BD4FF0500383F380
:1037B0001188BFF36F8FBFF34F8FFEE708B5FFF798
:1037C0001FFB08BD08B503F0C1FB08BD08B503F039
:1037D000C5FB08BD82B0002301930D4B1B68B3F1FC
:1037E000FF3F08D04FF0500383F31188BFF36F8F72
:1037F000BFF34F8FFEE74FF0500383F31188BFF301
:103800006F8FBFF34F8F019B002BFCD002B070472E
:103810000C00002006480068006880F3088862B643
:1038200061B6BFF34F8FBFF36F8F00DF00BF0000A3
:1038300008ED00E04FF0807340F8043C21F00101F6
:1038400040F8081C034B40F80C3C40F8202C403852
:10385000704700BFD53700080000000000000000DE
:10386000074B19680868B0E8F00F80F30988BFF3C8
:103870006F8F4FF0000080F311884EF00D0E7047EF
:10388000C40200204FF0500383F31188BFF36F8F01
:10389000BFF34F8F0B4A136801331360012B00D025
:1038A00070474FF0E023D3F8043D13F0FF0FF7D03B
:1038B0004FF0500383F31188BFF36F8FBFF34F8F27
:1038C000FEE700BF0C000020094B1B6843B94FF016
:1038D000500383F31188BFF36F8FBFF34F8FFEE761
:1038E000013B034A13600BB983F31188704700BF93
:1038F0000C0000200000000000000000000000009C
:10390000EFF30980BFF36F8F0D4B1A6820E9F00FBA
:1039100010602DE908404FF0500080F31188FFF748
:1039200011FB4FF0000080F31188BDE808401968D2
:103930000868B0E8F00F80F30988BFF36F8F704715
:10394000C402002008B54FF0500383F31188BFF381
:103950006F8FBFF34F8FFFF7BDF928B14FF0E02312
:103960004FF08052C3F8042D002383F3118808BD63
:103970004FF0E022002313619361054B1B6805495A
:10398000A1FB03139B09013B53610723136170479C
:103990003C000020D34D621010B582B02A4B1A783B
:1039A000D2B20192FF221A701B78DBB28DF803307D
:1039B0009DF8033003F05003244A1370244B072270
:1039C0001A6009E0224A1368013B13609DF8033036
:1039D0005B00DBB28DF803309DF8033013F0800FED
:1039E000F0D11B4B1B68032B08D04FF0500383F31F
:1039F0001188BFF36F8FBFF34F8FFEE71B02144A8E
:103A0000136003F4E0631360019BDBB20E4A137092
:103A10004FF0E023D3F8202D42F47002C3F8202D9C
:103A2000D3F8202D42F07042C3F8202DFFF7A0FFFD
:103A30000024084B1C60FFF7EDFEFFF783FAFFF749
:103A4000C9FE204602B010BD00E400E034040020AE
:103A5000380400200C000020EFF305830F2B0FD952
:103A6000114A9B5CDBB2114A12789A4208D94FF096
:103A7000500383F31188BFF36F8FBFF34F8FFEE7BF
:103A80004FF0E023D3F80C3D03F4E063084A1268DA
:103A9000934208D94FF0500383F31188BFF36F8F1F
:103AA000BFF34F8FFEE77047F0E300E034040020DF
:103AB000380400207047000010B504460E4B1878FB
:103AC0004FF47A73B3FBF0F30C4A1068B0FBF3F0D9
:103AD00000F0A6F868B90F2C01D901200AE00022F5
:103AE00021464FF0FF3000F043F8054B1C600020EA
:103AF00000E0012010BD00BF100000203C000020AD
:103B00001400002008B5074A136843F0100313603F
:103B1000032000F01BF80020FFF7CEFFFFF7CAFFDD
:103B2000002008BD00200240034A1168034B1B78A7
:103B30000B441360704700BF3C04002010000020BD
:103B4000014B1868704700BF3C040020074AD36847
:103B500023F4E0631B041B0C000200F4E060034349
:103B600043F0BF6343F40033D360704700ED00E0DF
:103B700000B5194BDB68C3F30223C3F1070CBCF19A
:103B8000040F28BF4FF0040C03F1040EBEF1060F22
:103B900018D9033B4FF0FF3E0EFA0CFC21EA0C0152
:103BA00099400EFA03F322EA0303194300280BDBC2
:103BB0000901C9B200F1604000F5614080F80013CE
:103BC0005DF804FB0023E5E700F00F000901C9B22E
:103BD000024B1954F4E700BF00ED00E014ED00E0E3
:103BE000002807DB00F01F02400901239340024A2E
:103BF00042F82030704700BF00E100E000280CDBF5
:103C000000F01F024009012393402030034A42F88C
:103C10002030BFF34F8FBFF36F8F704700E100E09C
:103C20000138B0F1807F0BD24FF0E0235861054A94
:103C3000F02182F823100020986107221A61704752
:103C40000120704700ED00E0002808DB00F01F02B3
:103C50004009012393406030014A42F82030704708
:103C600000E100E0704708B5FFF7FCFF08BD7047B2
:103C700058B110B5044643791BB10123637100208C
:103C800010BD0371FFF7F3FFF7E70120704750B154
:103C900010B504460223037101F084FC002020616A
:103CA0002071607110BD0120704710B40468236852
:103CB00001F01001012202FA01F123EA0101216061
:103CC0000271002010BC704790F82130022B06D002
:103CD00004238363002380F82030012070470268AA
:103CE000136823F00E0313600268136823F00103C6
:103CF0001360036CC16B012202FA03F34B6080F87E
:103D00002120002380F820301846704708B590F82D
:103D10002130022B03D004238363012008BD0268F5
:103D2000136823F00E0313600268136823F0010385
:103D3000136003684B4A93424ED9783A934224D099
:103D40001432934230D0143293422FD01432934223
:103D50002FD0143293422FD0143293422FD01432EA
:103D600093422FD002F5627293422ED014329342C6
:103D70002DD0143293422CD01432934202D04FF4FF
:103D8000803203E04FF4805200E00122364B5A604B
:103D9000012380F82130002380F82030436B002B72
:103DA0005ED098470020B9E71022EFE74FF4807209
:103DB000ECE74FF48052E9E74FF48032E6E74FF446
:103DC0008012E3E74FF08072E0E70122DEE7102285
:103DD000DCE74FF48072D9E7244A934224D01432AE
:103DE000934225D01432934224D01432934224D0EB
:103DF0001432934224D01432934224D0143293428A
:103E000024D002F56272934223D01432934222D01E
:103E10001432934221D01432934202D04FF48032B4
:103E200003E04FF4805200E00122114B5A60AFE7EB
:103E30001022FAE74FF48072F7E74FF48052F4E76C
:103E40004FF48032F1E74FF48012EEE74FF08072CA
:103E5000EBE70122E9E71022E7E74FF48072E4E79D
:103E600000205BE78000024000040240080002409E
:103E70000000024070B582B00024A446B0E0874D37
:103E8000AA4210D007D9864DAA420CD005F580353C
:103E9000AA4208D013E0A5F58015AA4203D005F583
:103EA0007025AA4207D18A68002A62D0012A5BD015
:103EB0004361082403E0A5F58015AA42F3D0BEF1C2
:103EC000FF0F58D80646BEF1FF0F56D84FEA8C02B6
:103ED00033680F25954023EA050304FA02F21343E1
:103EE00033604B6813F0805F78D06E4B9A6942F074
:103EF00001029A619B6903F001030193019B4FEA60
:103F00009C02951C684B53F825600CF003039D0040
:103F10000F23AB4026EA0306644B984233D003F5E7
:103F20008063984200F0988003F58063984200F027
:103F3000958003F58063984200F0928003F58063DA
:103F4000984200F08F8003F58063984219D00623D1
:103F50001AE0CC68B3E7CC680434B0E7CC68083426
:103F6000ADE7CC680C34AAE703610824A7E7002476
:103F7000A5E70424A3E7061DA5E7ACF1080292001B
:103F8000A6E7052300E00023AB4033430232464D51
:103F900045F822304B6813F4803F65D0444A1368DB
:103FA00043EA0E0313604B6813F4003F62D0404AAB
:103FB000536843EA0E0353604B6813F4801F5FD0CD
:103FC0003B4A936843EA0E0393604B6813F4001F67
:103FD0005CD0374AD36843EA0E03D3600CF1010C7E
:103FE0000A6832FA0CF357D0012303FA0CF302EA01
:103FF000030E33EA0202F1D14A68122A3FF63FAFBC
:10400000122A3FF65CAF01A555F822F0A73E000842
:10401000533F00085D3F00086F3F0008BF3E0008A7
:10402000BF3E0008BF3E0008BF3E0008BF3E00087C
:10403000BF3E0008BF3E0008BF3E0008BF3E00086C
:10404000BF3E0008BF3E0008BF3E0008BF3E00085C
:10405000573F0008633F0008012395E7022393E7D9
:10406000032391E704238FE7114A136823EA0E0321
:10407000136098E70E4A536823EA0E0353609BE7E8
:104080000B4A936823EA0E0393609EE7084AD368BD
:1040900023EA0E03D360A1E702B070BD0000221036
:1040A00000003110001002400000014000080140F3
:1040B000000401400AB101617047090401617047C1
:1040C00008B5054B5B69034200D108BD024B58613E
:1040D00001F0C4FBF9E700BF0004014082B0084BC7
:1040E0001B68084AA2FB03235B0A00FB03F301934E
:1040F00000BF019B5A1E0192002BF9D102B07047FC
:104100003C000020D34D6210002800F0F18170B512
:1041100082B00446036813F0010F2CD0994B5B6802
:1041200003F00C03042B1DD0964B5B6803F00C03CB
:10413000082B12D06368B3F5803F41D0002B55D1D6
:1041400003F1804303F504331A6822F480321A60C5
:104150001A6822F480221A6037E08A4B5B6813F4F5
:10416000803FE7D0874B1B6813F4003F03D06368A0
:10417000002B00F0BF81236813F0020F75D0814B34
:104180005B6813F00C0F5FD07E4B5B6803F00C0391
:10419000082B54D02369002B00F08A807A4B01222F
:1041A0001A60FFF7CDFC0546764B1B6813F0020F33
:1041B00075D1FFF7C5FC401B0228F5D903209EE10D
:1041C000704A136843F480331360636843B3FFF7A6
:1041D000B7FC05466B4B1B6813F4003FCBD1FFF7D0
:1041E000AFFC401B6428F5D9032088E1B3F5A02F6C
:1041F00009D0644B1A6822F480321A601A6822F4DB
:1042000080221A60E1E703F18043A3F53C331A688A
:1042100042F480221A601A6842F480321A60D4E7AD
:10422000FFF78EFC0546574B1B6813F4003FA2D0E6
:10423000FFF786FC401B6428F5D903205FE1514B52
:104240005B6813F4803FA5D14E4B1B6813F0020F3F
:1042500003D02369012B40F04F814A4A136823F0B1
:10426000F803616943EAC1031360236813F0080F80
:1042700033D0A369002B5CD0434B0122C3F88024C8
:10428000FFF75EFC05463F4B5B6A13F0020F21D13E
:10429000FFF756FC401B0228F5D903202FE1394ACD
:1042A000136823F0F803616943EAC1031360DCE794
:1042B000354B00221A60FFF743FC0546314B1B6863
:1042C00013F0020FD1D0FFF73BFC401B0228F5D9B9
:1042D000032014E10120FFF701FF236813F0040F0E
:1042E00000F09680274BDB6913F0805F34D1254BBB
:1042F000DA6942F08052DA61DB6903F0805301939E
:10430000019B0125214B1B6813F4807F26D0E368B5
:10431000012B3DD0002B53D103F1804303F504332F
:104320001A6A22F001021A621A6A22F004021A6260
:1043300033E0154B0022C3F88024FFF701FC05464B
:10434000104B5B6A13F0020FC7D0FFF7F9FB401B5D
:104350000228F5D90320D2E00025D3E70B4A1368E1
:1043600043F480731360FFF7EBFB0646074B1B68B3
:1043700013F4807FCBD1FFF7E3FB801B6428F5D9D2
:104380000320BCE0001002400000424200700040E8
:104390005F4A136A43F001031362E36833B3FFF724
:1043A000CFFB06465A4B1B6A13F0020F2FD1FFF7C3
:1043B000C7FB801B41F288339842F3D903209EE06B
:1043C000052B09D0524B1A6A22F001021A621A6AAE
:1043D00022F004021A62E0E74D4B1A6A42F004022E
:1043E0001A621A6A42F001021A62D6E7FFF7A8FBC6
:1043F0000646474B1B6A13F0020F08D0FFF7A0FBDD
:10440000801B41F288339842F3D9032077E0E5B965
:10441000E369002B72D03E4A526802F00C02082A6F
:1044200056D0022B17D03B4B00221A66FFF788FBB1
:104430000446374B1B6813F0007F47D0FFF780FB23
:10444000001B0228F5D9032059E0314AD36923F033
:104450008053D361DCE72F4B00221A66FFF770FB15
:1044600005462B4B1B6813F0007F06D0FFF768FB57
:10447000401B0228F5D9032041E0236AB3F5803FB1
:104480001AD023494B6823F47413226A606A0243EA
:1044900013434B601F4B01221A66FFF751FB044682
:1044A0001B4B1B6813F0007F0ED1FFF749FB001B6D
:1044B0000228F5D9032022E0154A536823F400337B
:1044C000A1680B435360DCE7002018E0002016E0F1
:1044D000012B16D00E4B5B6803F48031226A9142A7
:1044E00011D103F47013626A93420ED1002006E0EA
:1044F00001207047012002E0012000E0002002B00E
:1045000070BD0120FBE70120F9E70120F7E700BFBC
:10451000001002400000424286B0174B0FCB0DF155
:10452000180C0CE90F0040F20123ADF80430134BD6
:104530005B6803F00C02082A02D0114806B07047ED
:10454000C3F3834218326A4412F8100C13F4803F0C
:104550000DD00A4B5B68C3F3404318336B4413F828
:10456000143C074A02FB00F0B0FBF3F0E6E7054B12
:1045700003FB00F0E2E700BF747300080010024084
:1045800000127A0000093D00002800F0A08070B5FC
:104590000D460446524B1B6803F007038B420BD2B7
:1045A0004F4A136823F007030B431360136803F0AB
:1045B00007038B4240F08D80236813F0020F17D061
:1045C00013F0040F04D0474A536843F4E063536088
:1045D000236813F0080F04D0424A536843F4605331
:1045E0005360404A536823F0F003A1680B435360C3
:1045F000236813F0010F31D06368012B20D0022B08
:1046000025D0384A126812F0020F64D035494A6842
:1046100022F0030213434B60FFF792FA0646314B38
:104620005B6803F00C036268B3EB820F16D0FFF7F0
:1046300087FA801B41F288339842F0D9032045E085
:10464000284A126812F4003FE0D101203EE0254ADA
:10465000126812F0007FD9D1012037E0204B1B688F
:1046600003F00703AB420AD91D4A136823F007037E
:104670002B431360136803F00703AB422DD123686B
:1046800013F0040F06D0174A536823F4E063E1687F
:104690000B435360236813F0080F07D0114A536887
:1046A00023F46053216943EAC1035360FFF734FFE9
:1046B0000C4B5B68C3F303130B4AD35CD8400B4B22
:1046C00018600B4B1868FFF7F7F9002070BD012048
:1046D00070470120FAE70120F8E70120F6E700BF64
:1046E0000020024000100240C87300083C00002077
:1046F00014000020014B1868704700BF3C000020E8
:1047000008B5FFF7F7FF044B5B68C3F30223034AC6
:10471000D35CD84008BD00BF00100240D873000829
:1047200008B5FFF7E7FF044B5B68C3F3C223034AF6
:10473000D35CD84008BD00BF00100240D873000809
:1047400070B582B00446036813F0010F36D03F4BBA
:10475000DB6913F0805F49D13C4BDA6942F080524B
:10476000DA61DB6903F080530193019B0125384B2B
:104770001B6813F4807F3BD0344B1B6A13F44073E7
:1047800013D0626802F440729A420ED02F4A136A24
:1047900023F440702F490126C1F840640026C1F877
:1047A0004064106213F0010F36D1284A136A23F4D3
:1047B000407361680B431362002D3ED1236813F0F0
:1047C000020F06D0214A536823F44043A1680B43EB
:1047D0005360236813F0100F34D01C4A536823F43D
:1047E000800361690B43536000202CE00025BEE785
:1047F000174A136843F480731360FFF7A1F9064664
:10480000134B1B6813F4807FB6D1FFF799F9801B17
:104810006428F5D9032016E0FFF792F906460B4B02
:104820001B6A13F0020FC0D1FFF78AF9801B41F217
:1048300088339842F3D9032005E0D36923F08053ED
:10484000D361BBE7002002B070BD00BF0010024082
:1048500000700040000042427047002856D010B55A
:104860000446436A33B94368B3F5827F05D0002319
:10487000C36102E00023036143610023A36294F853
:104880005130002B3CD0022384F851302268136849
:1048900023F040031360636803F48273A26802F498
:1048A00004421343E26802F400621343226902F0F7
:1048B00002021343626902F001021343A26902F487
:1048C00000721343E26902F038021343226A02F0D5
:1048D00080021343A26A02F40052216813430B6062
:1048E000638B226803F0040353602268D36923F4C6
:1048F0000063D36100206065012384F8513010BD4E
:1049000084F850302046FFF7A7FFBCE7012070472E
:1049100060B370B50E46154604468369B3F5807FD3
:1049200026D090F84130E3B1214651F8080B00F051
:1049300031FDA2683146206800F060FD236BA2685B
:104940002946606800F082FD2268A16852F8213093
:1049500043F0010342F82130012384F84130002064
:1049600070BD80F84030FBF7F7FCDDE701207047B1
:104970000120F5E77047704710B5044603681A69CF
:1049800012F0020F11D0DA6812F0020F0DD06FF0A2
:1049900002021A610123037703689B6913F0030F76
:1049A00070D000F0EEFC0023237723681A6912F020
:1049B000040F12D0DA6812F0040F0ED06FF0040268
:1049C0001A610223237723689B6913F4407F5FD029
:1049D000204600F0D6FC0023237723681A6912F0E2
:1049E000080F12D0DA6812F0080F0ED06FF008022C
:1049F0001A61042323772368DB6913F0030F4ED079
:104A0000204600F0BEFC0023237723681A6912F0C9
:104A1000100F12D0DA6812F0100F0ED06FF01002E3
:104A20001A61082323772368DB6913F4407F3DD0A4
:104A3000204600F0A6FC0023237723681A6912F0B1
:104A4000010F03D0DA6812F0010F36D123681A691A
:104A500012F0800F03D0DA6812F0800F34D123688F
:104A60001A6912F0400F03D0DA6812F0400F32D109
:104A700023681A6912F0200F03D0DA6812F0200FB1
:104A800030D110BD00F081FC2046FFF773FF8AE7AC
:104A9000204600F07AFC2046FFF76CFF9BE720469B
:104AA00000F073FC2046FFF765FFACE7204600F0FE
:104AB0006CFC2046FFF75EFFBDE76FF001021A6154
:104AC000204600F039FCC1E76FF080021A612046F1
:104AD00000F089F8C3E76FF040021A612046FFF743
:104AE0004AFFC5E76FF020021A61204600F07AF80D
:104AF000C7E700000368244A904212D002F5006222
:104B000090420ED0B0F1804F0BD0A2F59832904277
:104B100007D002F58062904203D002F58062904295
:104B200003D123F070034A681343174A904212D00E
:104B300002F5006290420ED0B0F1804F0BD0A2F58A
:104B40009832904207D002F58062904203D002F57D
:104B50008062904203D123F44073CA68134323F068
:104B600080034A69134303608B68C3620B688362E6
:104B7000054B984203D003F50063984201D10B69BD
:104B80000363012343617047002C014040B310B51B
:104B9000044690F83D30F3B1022384F83D302146BD
:104BA00051F8040BFFF7A6FF012384F8463084F880
:104BB0003E3084F83F3084F8403084F8413084F847
:104BC000423084F8433084F8443084F8453084F827
:104BD0003D30002010BD80F83C3001F0D5FCDBE713
:104BE00001207047704770470268D36823F49073C0
:104BF000D3600268536923F001035361036B012BF7
:104C000005D0202380F83E300023036370470268FC
:104C1000D36823F01003D360F3E790F83D30DBB2A4
:104C2000212B01D0022070478368B3F5805F17D035
:104C3000036A5A1C02621A7803685A60C38C9BB2DA
:104C4000013B9BB2C3844BB90268D36823F0800355
:104C5000D3600268D36843F04003D36000207047FC
:104C60000369002BE4D1036A1B880268C3F30803BD
:104C70005360036A02330362E0E790F83D30DBB231
:104C8000202B19D1D1B1DAB190F83C30012B19D0D9
:104C9000012380F83C3001628284C28400230364D3
:104CA000212280F83D2080F83C300168CA6842F03B
:104CB0008002CA6018467047022070470120704782
:104CC000012070470220704708B50168CA6822F0C9
:104CD0004002CA60202280F83D2001F0EEFC002056
:104CE00008BD08B5406A0023C385C38401F0ECFC0D
:104CF00008BD704790F83E30DBB2222B60D183684C
:104D0000B3F5805F46D0826AB3F5805F04D0002B94
:104D10004DD10369002B4AD103685B681370836A25
:104D200001338362C38D9BB2013B9BB2C385002BD1
:104D300048D100B583B00268D36823F02003D36064
:104D40000268D36823F48073D3600268536923F048
:104D500001035361202380F83E30036B012B2CD1DB
:104D6000002303630268D36823F01003D360036851
:104D70001A6812F0100F06D0002201921A680192F0
:104D80005B680193019B818DFFF7B3FF002003B0A7
:104D90005DF804FB0269002AB5D1826A03685B688A
:104DA000C3F308031380836A02338362BAE703689C
:104DB0005B6803F07F031370B1E701F077FCE5E770
:104DC000022070470020704730B583B00446026867
:104DD0001368D068516913F00F0505D113F0200F47
:104DE00002D010F0200F19D12DB111F0010119D10D
:104DF00010F4907F16D1216B012975D013F0800F2C
:104E000003D010F0800F40F0D78013F0400F03D094
:104E100010F0400F40F0D48003B030BD2046FFF7C3
:104E200069FFF9E713F0010F06D010F4807F03D07B
:104E3000226C42F00102226413F0040F04D019B175
:104E4000226C42F00202226413F0020F04D019B166
:104E5000226C42F00402226413F0080F07D010F015
:104E6000200F00D119B1226C42F008022264226C9A
:104E7000002AD1D013F0200F02D010F0200F21D142
:104E800023685B6903F04003226C12F0080F00D125
:104E900023B32046FFF7A8FE23685A6912F0400F9B
:104EA00018D05A6922F040025A61A36B73B1464A86
:104EB0005A63A06BFEF72AFF0028ADD0A06B436BAE
:104EC0009847A9E72046FFF715FFD9E7204601F0EC
:104ED000FBFBA1E7204601F0F7FB9DE7204601F030
:104EE000F3FB0023236497E713F0100F86D010F034
:104EF000100F83D00023019313680193536801932B
:104F0000019B536913F0400F32D0A16B0B685B68B3
:104F10009BB2002B80D0A08D98427FF67DAFE385B9
:104F20008B69202B08D1A18DE38D9BB2C91A89B260
:104F30002046FFF7DEFE6FE7D36823F48073D3606B
:104F40002268536923F0010353612268536923F0F7
:104F500040035361202384F83E30002323632268FA
:104F6000D36823F01003D360A06BFEF7ADFEDAE741
:104F7000A18DE38D9BB2C91A89B2E38D9BB2002B40
:104F80003FF44AAF00293FF447AFD36823F490734E
:104F9000D3602268536923F001035361202384F80E
:104FA0003E30002323632268D36823F01003D360CC
:104FB0002046FFF79EFE2FE72046FFF72EFE2BE749
:104FC0002046FFF781FE27E7E34C000890F83C30CD
:104FD000012B14D0012380F83C30242380F83D308D
:104FE0000268D36823F00C0343F00803D360202346
:104FF00080F83D30002380F83C301846704702208E
:10500000704790F83C30012B14D0012380F83C30DD
:10501000242380F83D300268D36823F00C0343F06A
:105020000403D360202380F83D30002380F83C3017
:10503000184670470220704790F83D3090F83E00C7
:1050400018437047034681628285C2850020186438
:10505000222283F83E2083F83C001968CA6842F493
:105060008072CA6019684A6942F001024A611A688E
:10507000D36843F02003D360704708B590F83E3002
:10508000DBB2202B0DD171B17AB190F83C30012BFD
:105090000DD0012380F83C3000230363FFF7D2FFDB
:1050A00000E0022008BD0120FCE70120FAE7022011
:1050B000F8E700000346154A904217D04FF6FF70FC
:1050C000B3F1804F14D0124A934213D0114A934245
:1050D00012D0114A934211D0104A934210D0104A74
:1050E00093420FD00F4A93420ED070470020E7E75B
:1050F0000120E8E70220E9E70320EAE70420EBE7E4
:105100000520ECE70620EDE70720EEE7002C014044
:105110000004004000080040000C00400010004067
:10512000001400400034014070B50546064656F8AC
:10513000100FFFF7BFFF0446304601F04BF9002384
:105140000A4A42F82430EB6015F160060CD005F1F4
:10515000B004A64208D0103CA368002BF9D003226B
:10516000214620469847F4E7284670BD40040020B9
:10517000F8B504460D460846FFF79CFF4FF6FF734F
:10518000984202D023690BB1FEE7FEE704F10C035D
:10519000224A42F820302561002584F82C502563EE
:1051A0006563A563E56325646564A56484F84C5074
:1051B00084F84D50E4600E23A365E56504F1100703
:1051C000384601F075F800E00135042D0DDCAE1D08
:1051D00004EB0616B368002BF6D0032231463046A6
:1051E00098470023B360F360EEE70023032B06DC4F
:1051F0000022E25404EB43018A800133F6E70023E6
:1052000063614FF6FF72E261A361236263628023F0
:10521000A3623846FFF7BAFCF8BD00BF4004002087
:1052200038B5054600F16002042303E000249460D1
:105230001032013B002BF9DA00232B612846FFF7DF
:1052400097FF284638BD000008B5034B186810B119
:105250000430FFF791FB08BD4004002008B5034B64
:10526000186810B10430FFF787FB08BD4004002028
:1052700008B5034B586810B10430FFF77DFB08BD3B
:105280004004002008B5034B986810B10430FFF7C4
:1052900073FB08BD4004002008B5034BD86810B16B
:1052A0000430FFF769FB08BD4004002008B5034B3C
:1052B000186910B10430FFF75FFB08BD40040020FF
:1052C00008B5034B586910B10430FFF755FB08BD12
:1052D0004004002008B5034B986910B10430FFF773
:1052E0004BFB08BD4004002008B5034BD86910B142
:1052F0000430FFF741FB08BD4004002008B5034B14
:10530000D86910B10430FFF737FB08BD4004002016
:1053100008B5836813B1C368984708BD01F0CEFF94
:1053200048B108B500F0C2FF0068836E13B1603069
:10533000FFF7EEFF08BDFEE708B5FFF7F1FF08BD78
:1053400058B110B50246037F013B072B14D8DFE8A4
:1053500003F00516130713131314FEE7012400E0EE
:105360000324104600F0A2FF0068A31D00EB031009
:1053700083680BB1FFF7CCFF10BD0424F1E70224D2
:10538000EFE708B5FFF7DCFF08BD08B5FFF7D8FF6A
:1053900008BD000010B40A6850F8223023F0010361
:1053A00040F822308B68082B24D000244A6822431E
:1053B0001343CA6813430A6913434A691343CA690A
:1053C00013430A6A13434A6A13438A6A1343CA6A35
:1053D00013430A6B13438A6913434A6B13430968E7
:1053E00050F82140044A22401A4340F8212000206E
:1053F00010BC70474024D9E78000F0FF00B50132AF
:1054000050F8223003F0404C0B68D1F804E043EA36
:105410000E13D1F808E043EA0E23D1F80CE043EA7A
:105420000E43D1F810E00EF1FF3E43EA0E53D1F8DF
:1054300014E0AEF1020E43EA0E6389690B434CEAB5
:10544000030340F8223000205DF804FBB3F5804FE1
:1054500005D06FF0704340F822300020704730B420
:1054600050F82230094C1C400B684D6843EA051384
:105470008D6843EA05238D692B43C96843EA0143DC
:10548000234340F82230002030BC70470000F0CFAA
:1054900008B501F05BFD08BD08B501F05FFD08BD72
:1054A00088B006285AD8DFE800F004111D293541DC
:1054B0004D002B4B9A6942F004029A619B6903F0FC
:1054C00004030193019B274808B07047244B9A6955
:1054D00042F008029A619B6903F008030293029B61
:1054E0002148F1E71E4B9A6942F010029A619B69CC
:1054F00003F010030393039B1C48E5E7184B9A69DC
:1055000042F020029A619B6903F020030493049BFC
:105510001748D9E7124B9A6942F040029A619B6999
:1055200003F040030593059B1248CDE70C4B9A69A5
:1055300042F080029A619B6903F080030693069B08
:105540000D48C1E7064B9A6942F480729A619B69E3
:1055500003F480730793079B0848B5E70020B3E77F
:105560000010024000080140000C01400010014002
:105570000014014000180140001C014000200140BF
:1055800008B5074900F05CFEC0F3C430012802D022
:10559000022802D0FEE7002000E0102008BD00BF76
:1055A000E07300080268094B9A4200D0704703F587
:1055B000CE331A6942F000521A611A6922F0005281
:1055C0001A61DA6922F00052DA61EFE700740040F4
:1055D00010B586B004460A4900F00AFE019060B199
:1055E0002046FFF7CDFF014608B1102805D101A8DC
:1055F000FEF75BFB01A8FEF74AFB06B010BD00BF3B
:10560000E073000870B50546134900F0F1FDFFF79F
:1056100051FD0446114B53F8203063B10F4B53F842
:1056200024301C6834B12046FFF77EFDB0212046AF
:10563000FFF732FF70BD0849284600F0D9FD064645
:10564000B020FFF725FF05463146FFF7E9FD034B84
:1056500053F824301D60E1E7F47400084004002092
:1056600008B5FEF76DFA08BD08B5FEF75DFAFEF75E
:10567000FAFAFEF749F808BD7047000084B00F4BF6
:10568000DA6942F08052DA61DA6902F080520192FE
:10569000019A9A6942F001029A619A6902F0010244
:1056A0000292029A5A6942F040025A615B6903F021
:1056B00040030393039B04B0704700BF00100240F7
:1056C0000D4BD3F8FC3013F0807F06D10A4AD2F894
:1056D000FC3043F08073C2F8FC30084B00225A6063
:1056E0001A6842F001021A6000BF00BF00BF58688C
:1056F000B0FA80F04009704700ED00E0001000E0D3
:1057000008B5FFF7BBFFFFF7DBFFFEF7FBF9FFF77D
:10571000B3FFFBF7B3F90248FEF7AAFA08BD00BFD2
:10572000340000200346002002E05B080130C0B2D4
:10573000012BFAD17047000010B5012805D018B927
:105740004FF6FF73994246D010BD4FF6FF73994252
:10575000F5D1284B06221A700022DA6007241C7546
:105760001A62082483F828405A63092483F83C40CD
:105770009A640A2483F85040DA65172483F8644059
:105780001A6783F87840C3F8842083F88C40C3F804
:10579000982083F8A040C3F8AC2083F8B440C3F845
:1057A000C020282483F8C840C3F8D42083F8DC4004
:1057B000C3F8E82083F8F040C3F8FC2083F80441E4
:1057C000C3F8102183F81841C3F8242183F82C4131
:1057D000C3F83821B3E7084C02E00322014698479A
:1057E000044B9C42B0D0143C201D8368002BF4D1A4
:1057F000F6E700BF60040020A005002008B50120E6
:10580000FEF75EFC08BD08B50220FEF759FC08BD96
:1058100008B50420FEF754FC08BD08B50820FEF7C3
:105820004FFC08BD08B51020FEF74AFC08BD10B5B6
:10583000202403E0A0B2FEF743FC6400B4F5007F2F
:10584000F8D910BD10B54FF4806403E0A0B2FEF7A4
:1058500037FC6400B4F5004FF8D910BD08B5FFF768
:1058600061FF00EB8003044800EB83000430836891
:105870000BB1FFF74DFD08BD6004002008B54FF6E1
:10588000FF710120FFF758FF08BD08B54FF6FF7103
:105890000020FFF751FF08BDB0F1FF3F07D00B68B4
:1058A000B3F1FF3F05D0834205D00C31F7E700206C
:1058B0007047002070470120704700002DE9F0413B
:1058C00084B00446C1F30628C0F3031004F00F02AD
:1058D000A34B53F82260B4F1FF3F00D1FEE70D4621
:1058E00001F00707FFF7DCFD012F08D0032F00F2BE
:1058F0004583DFE817F023004403B1019E03320E15
:10590000815896FAA6F3ABB1B3FA83F39B004FF03C
:10591000030C0CFA03F321EA030196FAA6F35BB138
:10592000B3FA83F39B004FF0030C0CFA03F30B4321
:105930008350DBE72023E9E72023F3E7894B9A69CB
:1059400042F001029A619B6903F001030193019BFC
:1059500008F1FF38B8F12B0F34D8DFE818F02C002D
:1059600036003E0046004E0056005E0066006E00A7
:1059700076008000880090009A00A200AA00B4007F
:10598000BE00C600CE00D800E000E80033003300BF
:105990003300F000F80007010F0117011F01270174
:1059A0002F0137013D0145014B01530159016101AF
:1059B0006901710177016C4A536843F0E06343F079
:1059C000010353604FF0080CDAE2674A536823F092
:1059D000010343F0E0635360F4E7634A536843F024
:1059E000E06343F002035360ECE75F4A536823F03F
:1059F000020343F0E0635360E4E75B4A536843F01B
:105A0000E06343F004035360DCE7574A536823F034
:105A1000040343F0E0635360D4E7534A536843F010
:105A2000E06343F008035360CCE74F4A536823F028
:105A3000080343F0E0635360C4E74B4A536843F004
:105A4000E06343F030035360BCE7474A536823F0F8
:105A5000300343F0E06343F010035360B2E7424A7F
:105A6000536823F0300343F0E0635360AAE73E4AF3
:105A7000536843F0E06343F0C0035360A2E73A4A3F
:105A8000536823F0C00343F0E06343F040035360E6
:105A900098E7354A536823F0C00343F0E06353604E
:105AA00090E7314A536843F0E06343F44073536036
:105AB00088E72D4A536823F4407343F0E06343F4CE
:105AC000007353607EE7284A536823F4407343F021
:105AD000E06343F48073536074E7234A536823F40C
